:040000000128FC2FA8
:100E2000F401F501701C182F7208F4077308F53DE2
:100E30000130F235F30D890B192F0130F136F00C2A
:100E4000890B1E2F70087104031D122F7508F10005
:100E50007408F0000800472721009D144130FD0070
:100E6000EE30890B312FFD0B312F003221001C0891
:100E7000F1001B08F0000030F200F30010277108A9
:100E80002000A8007008A70027086E272C2F230039
:100E90008C018E018E1421008E141D0883391438A4
:100EA0009D009E17FC309E051E088F3930389E002D
:100EB0001D1419088739603899008E122C00931779
:100EC000131713121F3020009B0000306E272000E4
:100ED0001C08FC3902389C001C1508002000A400E6
:100EE0006430F6000030F7001B08013EF0000030CF
:100EF00003180130F1002408FB00FC01FB35FC0D58
:100F0000FB35FC0D7B08F2007C08F300102771080C
:100F1000F9007008F800AA2777082000A6007608D4
:100F2000A5002508FB000530FB35FF3E031D942F6F
:100F30007B352C00910020002608FC002508FB00D2
:100F40007C0DFC0CFB0C7C0DFC0CFB0C7B082C00C2
:100F5000920008002000A101F71FB52FF609F7093C
:100F6000F60A0319F70AA101A10AF91FC02FF8090F
:100F7000F909F80A0319F90A0130FA007A08A106FA
:100F8000A201A301760877040319EF2FA001A00A9C
:100F9000F71BD42F0130F635F70D890BCB2F01301D
:100FA000FA007A08A007C82F0130A235A30D890BDB
:100FB000D52F77087902031DDF2F76087802031CEE
:100FC000E62F7608F8027708F93B22140130F7364D
:100FD000F60C890BE72F0130A002031DD42F210846
:100FE0000319F72FA209A309A20A0319A30A2308C8
:100FF000F7002208F6000800A701A80120002B2F07
:020000040001F9
:04000E00A4F9FFDD75
:00000001FF
